:02000000662870
:0E0006008312031339088A00380882000800AC
:1000140003208A110A128000840AB80A0319B90A53
:08002400F003031D0A28080087
:10002C00831203133E0887003C08BA003D08BB004E
:10003C0080303B06F00080307002031D2728003012
:10004C003A02031C632808182C2865283A08203E1D
:10005C008400000886000B30FB002630FC005D306D
:10006C00FD00FD0B3728FC0B3728FB0B3728000055
:10007C0000008030F00080303B067002031D4828E1
:10008C003A08043C031C4F2887194F288715071280
:10009C005E288030F00080303B067002031D58282B
:1000AC003A08043C031C5E2807185E2807148710C6
:1000BC000130BA02031CBB031E2887140716080064
:1000CC0083120313A0010130A1000230A2000330FF
:1000DC00A3000430A4000530A5000630A6000730AC
:1000EC00A7000830A8000930A9001030AA00113070
:1000FC00AB001230AC001330AD001430AE00153034
:10010C00AF001630B0001730B1001830B200193003
:10011C00B3002030B4002130B5002230B6002330BB
:10012C00B700073083169F00860105108510051156
:10013C00851187010130880083120514851405157B
:10014C008515870108148814081CC128051485140A
:10015C00051585150F30BC000030BD00F330BE0016
:10016C00BF0116201730BC000030BD00DE30BE00D1
:10017C00BF01162048290510851005118511DE30A8
:10018C008700200886000514851405158515081CA4
:10019C00E4280708F33A031DDC280F30BC000030BC
:1001AC00BD00F330BE00BF011620E4281730BC00A0
:1001BC000030BD00DE30BE00BF01162088181629A5
:1001CC000708F33A031D16290330BA000030BB00B0
:1001DC0080303B06F00080307002031DF7280030A1
:1001EC003A02031C1329EB3087003A08203E8400A6
:1001FC00000886000B30FB002630FC005D30FD0053
:10020C00FD0B0629FC0B0629FB0B06290000000040
:10021C000130BA02031CBB03EE28DE3087004729ED
:10022C00881C47290708DE3A031D47290330BA000A
:10023C000030BB0080303B06F00080307002031DA4
:10024C00292900303A02031C4529DD3087003A0881
:10025C00203E8400000886000B30FB002630FC009A
:10026C005D30FD00FD0B3829FC0B3829FB0B3829C0
:10027C00000000000130BA02031CBB032029F3303C
:08028C008700C928AA284929AE
:02400E004A2F37
:00000001FF
